S02600006C656420626C696E6B696E67207769746820646966207061747465726E732E737265639B
S11300000C942A000C9434000C9434000C943400A6
S11300100C9434000C9434000C9434000C9434008C
S11300200C9434000C9434000C9434000C9434007C
S11300300C9434000C9434000C9434000C9434006C
S11300400C9434000C9434000C9434000C9434005C
S11300500C94340011241FBECFE5D4E0DEBFCDBF25
S11300600E9436000C9458000C9400008FEF84BB5F
S113007080E885BB2FEF44E38CE021504040804072
S1130080E1F700C0000020E030E00EC085B38695A3
S113009085BB9FEF44E38CE0915040408040E1F702
S11300A000C000002F5F3F4F283031057CF3E0CFC4
S10700B0F894FFCFEE
S9030000FC
